:100000000C945D000C9485000C9485000C94850084
:100010000C9485000C9485000C9485000C9485004C
:100020000C9485000C9485000C9485000C9485003C
:100030000C9485000C9485000C9485000C9485002C
:100040000C9495030C9485000C9405040C94DF0328
:100050000C9485000C9485000C9485000C9485000C
:100060000C9485000C94850000000008000201003B
:100070000003040700000000000000000000000072
:10008000250028002B0000000000240027002A0083
:10009000040404040404040402020202020203032E
:1000A0000303030301020408102040800102040836
:1000B0001020010204081020C30711241FBECFEF37
:1000C000D8E0DEBFCDBF13E0A0E0B1E0E6EFF6E19F
:1000D00002C005900D92A63AB107D9F724E0A6EA2E
:1000E000B3E001C01D92A337B207E1F710E0CDE500
:1000F000D0E004C02197FE010E941208CC35D10740
:10010000C9F70E9437040C94790B0C94000090E01E
:10011000FC01EC55FF4F249180579F4FFC018491C7
:10012000882399F090E0880F991FFC01EA57FF4F50
:10013000A591B491FC01E458FF4F859194918FB73C
:10014000F894EC91E22BEC938FBF08959C012C5F07
:100150003F4FFC014191CF014EBD0DB407FEFDCFD5
:1001600082179307B1F7FB01CB0108963FEF3EBD25
:100170000DB407FEFDCF2EB52193E817F907B9F7A7
:10018000089590E0FC01E859FF4F2491FC01EC55E3
:10019000FF4F3491FC01E057FF4FE491EE23C9F08B
:1001A000222339F0233001F1A8F4213019F1223053
:1001B00029F1F0E0EE0FFF1FE458FF4FA591B49135
:1001C0008FB7F894EC91611126C030953E233C9393
:1001D0008FBF08952730A9F02830C9F0243049F79F
:1001E000809180008F7D03C0809180008F77809305
:1001F0008000DFCF84B58F7784BDDBCF84B58F7D62
:10020000FBCF8091B0008F778093B000D2CF8091E8
:10021000B0008F7DF9CF3E2BDACF3FB7F8948091B5
:10022000CE039091CF03A091D003B091D10326B516
:10023000A89B05C02F3F19F00196A11DB11D3FBF1E
:10024000BA2FA92F982F8827BC01CD01620F711DED
:10025000811D911D42E0660F771F881F991F4A95E7
:10026000D1F70895AF92BF92CF92DF92EF92FF92B3
:100270000F931F93CF93DF936C017B018B01040FCE
:10028000151FEB015E01AE18BF08C017D10759F06A
:100290006991D601ED91FC910190F081E02DC601AC
:1002A0000995892B79F7C501DF91CF911F910F91A6
:1002B000FF90EF90DF90CF90BF90AF900895FC013A
:1002C000538D448D252F30E0842F90E0821B930BBB
:1002D000541710F0CF96089501970895FC01918D61
:1002E000828D981761F0A28DAE0FBF2FB11D5D9664
:1002F0008C91928D9F5F9F73928F90E008958FEF06
:100300009FEF0895FC01918D828D981731F0828DB9
:10031000E80FF11D858D90E008958FEF9FEF089510
:10032000FC01918D228D892F90E0805C9F4F821B74
:1003300091098F739927089582ED93E00E949001AF
:1003400021E0892B09F420E0822F089580E090E0DD
:10035000892B29F00E949C0181110C9400000895C2
:10036000FC01A48DA80FB92FB11DA35ABF4F2C912A
:10037000848D90E001968F739927848FA689B78921
:100380002C93A089B1898C91837080648C93938D18
:10039000848D981306C00288F389E02D80818F7DBB
:1003A00080830895EF92FF920F931F93CF93DF9373
:1003B000EC0181E0888F9B8D8C8D98131AC0E889A1
:1003C000F989808185FF15C09FB7F894EE89FF8970
:1003D0006083E889F98980818370806480839FBF0E
:1003E00081E090E0DF91CF911F910F91FF90EF900E
:1003F0000895F62E0B8D10E00F5F1F4F0F7311271E
:10040000E02E8C8D8E110CC00FB607FCFACFE88958
:10041000F989808185FFF5CFCE010E94B001F1CF2F
:10042000EB8DEC0FFD2FF11DE35AFF4FF0829FB7CC
:10043000F8940B8FEA89FB8980818062CFCFCF93BC
:10044000DF93EC01888D8823B9F0AA89BB89E889FC
:10045000F9898C9185FD03C0808186FD0DC00FB6A2
:1004600007FCF7CF8C9185FFF2CF808185FFEDCF20
:10047000CE010E94B001E9CFDF91CF910895962F70
:10048000FB012E2F291B281730F421912EBD0DB40E
:1004900007FEFDCFF6CF0895462FDB0120E130E0C7
:1004A0009D91722F6627F901EE0FEF2FEE1FFF0BC4
:1004B000F195E927FF27EE0FFF1FEA5FFE4F20812E
:1004C0003181262737279A2F941B981748F3C901A3
:1004D000880F991F08950F931F93CF93DF93CDB784
:1004E000DEB7C450D2400FB6F894DEBF0FBECDBF0A
:1004F0008C0187E0CF5FDD4F8883C150D24082E21C
:10050000CE5FDD4F8883C250D240BE016F5F7D4F0A
:1005100082E00E944C02CD5FDD4F9883C350D240F1
:10052000CC5FDD4F8883C450D24060E08AE00E94F7
:10053000C100BE016F5F7F4FCE018F5F9D4F0E9454
:10054000A60061E08AE00E94C100BE016F5F7F4F9C
:10055000DE01AF5FBE4F9E01275F3F4FCD01FB0124
:100560004191BF01FC014193CF0162177307B9F7B5
:10057000F801C80106962D9121938E179F07D9F790
:1005800080E0CC5FDD4F0FB6F894DEBF0FBECDBF6D
:10059000DF91CF911F910F91089560E08AE00E9452
:1005A000C10083E090E00197F1F761E08AE00C94EC
:1005B000C100CF92DF92EF92FF920F931F93CF93E0
:1005C000DF93CDB7DEB7DA950FB6F894DEBF0FBE76
:1005D000CDBF9E012F5F3F4F79019C012A5F3F4FA6
:1005E000F7016701DC014D91CD014193A217B307DB
:1005F000C9F78CE090E00E94540A8C0187E0F80172
:10060000808381E28183B80182E00E944C02D8019C
:1006100012969C93129713968C93F8013496C80106
:100620000A96D7012D917D012193E817F907C9F7A3
:10063000B60186E00E944C02F801928783870E94EF
:10064000CD0260E08AE00E94C100B8018CE00E9407
:100650003F0261E08AE00E94C100C801D3950FB655
:10066000F894DEBF0FBECDBFDF91CF911F910F91E8
:10067000FF90EF90DF90CF900C94F00AFC01019076
:100680000020E9F73197AF01481B590BBC0182EDFF
:1006900093E00C94320188E193E00C943E038F9236
:1006A0009F92AF92BF920F931F93CF93DF93CDB7DB
:1006B000DEB7A1970FB6F894DEBF0FBECDBF19A26B
:1006C000423008F44AE08E010F5D1F4F842E912CBA
:1006D000B12CA12CA50194010E94F007E62FB901CD
:1006E000CA01EA30F4F4E05DD801EE938D01232BCA
:1006F000242B252B79F790E080E0109719F0CD019D
:100700000E943E03A1960FB6F894DEBF0FBECDBF88
:10071000DF91CF911F910F91BF90AF909F908F90DD
:100720000895E95CE1CF0C943E031F920F920FB63F
:100730000F9211242F933F938F939F93AF93BF9367
:100740008091CA039091CB03A091CC03B091CD03CB
:100750003091C90323E0230F2D3758F50196A11DD1
:10076000B11D2093C9038093CA039093CB03A09338
:10077000CC03B093CD038091CE039091CF03A09191
:10078000D003B091D1030196A11DB11D8093CE037A
:100790009093CF03A093D003B093D103BF91AF91B7
:1007A0009F918F913F912F910F900FBE0F901F90AF
:1007B000189526E8230F0296A11DB11DD2CF1F92D6
:1007C0000F920FB60F9211242F933F934F935F9385
:1007D0006F937F938F939F93AF93BF93EF93FF9309
:1007E00082ED93E00E94B001FF91EF91BF91AF9134
:1007F0009F918F917F916F915F914F913F912F9139
:100800000F900FBE0F901F9018951F920F920FB66A
:100810000F9211242F938F939F93EF93FF93E09167
:10082000E203F091E3038081E091E803F091E903B2
:1008300082FD1BC090818091EB038F5F8F732091AD
:10084000EC03821741F0E091EB03F0E0EE52FC4F35
:10085000958F8093EB03FF91EF919F918F912F9153
:100860000F900FBE0F901F9018958081F4CFCF93FB
:10087000DF93CDB7DEB764970FB6F894DEBF0FBE37
:10088000CDBF789484B5826084BD84B5816084BD19
:1008900085B5826085BD85B5816085BD80916E001E
:1008A000816080936E00109281008091810082604F
:1008B000809381008091810081608093810080918C
:1008C00080008160809380008091B100846080937B
:1008D000B1008091B00081608093B00080917A0077
:1008E000846080937A0080917A00826080937A009D
:1008F00080917A00816080937A0080917A0080688C
:1009000080937A001092C100E091E203F091E3033A
:1009100082E08083E091DE03F091DF031082E091BA
:10092000E003F091E1038FEC80831092EA03E09101
:10093000E603F091E70386E08083E091E403F09121
:10094000E503808180618083E091E403F091E50319
:10095000808188608083E091E403F091E5038081E9
:1009600080688083E091E403F091E50380818F7DCE
:1009700080838BE193E00E943E030E944B038AE058
:100980000E94870061E08AE00E94C10088E00E9426
:10099000870060E088E00E94C1001FB7F894809152
:1009A000A603811124C0EAE9F0E08491EEEAF0E0C8
:1009B0009491E82FF0E0EE0FFF1FEA57FF4FA5914B
:1009C000B491EC91E92321F461E08AE00E94C10036
:1009D0008AE00E9487008CB580618CBD8CB58064F4
:1009E0008CBD8DE00E9487008BE00E948700809183
:1009F000A6038F5F8093A6031FBF8CB58C7F816099
:100A00008CBD8DB58E7F8DBD83E08093A70380E67E
:100A10008093A8034E0127E0820E911C3401CE0181
:100A200042969C8B8B8B8091C7039091C803019653
:100A30008031910508F018C29093C8038093C703D2
:100A40008091C7032091C8038093C5039091C6038A
:100A5000907F920F9093C6038093CB038091CC0339
:100A6000807F820F8093CC038CE090E00E94540A38
:100A70007C01DC011C92E1E01196EC9311978DE36F
:100A800012968C9312978EE613968C9301EC13E0DA
:100A9000F7013496C7010A96D8012D9121938E173C
:100AA0009F07D9F761EC73E086E00E944C02D70102
:100AB0001A969C931A971B968C930E94CD0260E025
:100AC0008AE00E94C100B7018CE00E943F0261E011
:100AD0008AE00E94C100C7010E94F00A8091A7032A
:100AE00089838091A8038A8367EA73E082E00E9489
:100AF0004C029B838C830E94CD0260E08AE00E94BE
:100B0000C100BE016F5F7F4F84E00E943F0261E041
:100B10008AE00E94C10088E090E00E94540A7C01B3
:100B200049EAA42E43E0B42E65015524539456E0BF
:100B3000452E1C01B6E02B0E311CE1E05E1299C17E
:100B4000F4E0FA831982BE016F5F7F4F82E00E945A
:100B50004C029B838C830E94CD0260E08AE00E945D
:100B6000C100B701CE0101960E94A60061E08AE0B3
:100B70000E94C100F701D601818190E0982F88275B
:100B80002081820F911D8D939D9332962E163F06E4
:100B900099F75394A6E0CA0ED11CB5E05B12CDCFF5
:100BA000C7010E94F00A88E293E00E949303F501D6
:100BB000619171915F0190E080E00E942B0920E03B
:100BC00030E44CE156E40E948A086B017C01AC01E0
:100BD0009B010E944F0A882309F459C182E393E0E4
:100BE0000E943E038EE393E00E94930381EC93E026
:100BF0008A159B05E1F60E944B030E944B0388E097
:100C000090E00E94540A7C01198682E08A878BE278
:100C10008B879AE09C870E94CD0260E08AE00E9468
:100C2000C100B701CE0109960E94A60061E08AE0EA
:100C30000E94C100F701DE0111966D01C7010896FF
:100C400021912D93E817F907D9F7C7010E94F00AFF
:100C5000E1ECF3E0D6018D916D0181938A169B063C
:100C6000C9F780E493E00E94930327ECE22E23E08F
:100C7000F22EF80161918F0170E090E080E04AE08F
:100C80000E944F038EE393E00E949303E016F10667
:100C900081F70E944B030E944B0389E6898788E60F
:100CA0008A871B8689E78C878AE78D8789EA8E8702
:100CB000CE0109960E94D902CE0101960E946B02D4
:100CC0008BE493E00E949303CE0101967C018C019A
:100CD000D8016D918D0170E090E080E040E10E94CC
:100CE0004F038EE393E00E9493036016710681F731
:100CF0000E944B030E944B03CE0109960E94D90229
:100D000087E08F8783E2888BBE01615F7F4F82E03F
:100D10000E944C02998B8A8B60E08AE00E94C1009D
:100D2000BE01615F7F4F84E00E943F0286E090E059
:100D30002FEF2EBD00000DB407FEFDCF3EB501978D
:100D4000C1F761E08AE00E94C100CE0101960E94D5
:100D50006B028A819981B0E19B9F90011124982FA9
:100D600092959F70922B9F87282F30E093E03595C6
:100D700027959A95E1F72F704B81E0E14E9FA001F6
:100D80001124242B288B2D81F0E12F9F9001112419
:100D9000829586958770822B898B80E793E00E94ED
:100DA0009303D7016D917D0170E090E080E040E118
:100DB0000E944F038EE393E00E9493030E151F05DC
:100DC00081F70E944B030E944B038EE893E00E9440
:100DD00093038E01015F1F4FF80161918F0170E055
:100DE00090E080E04AE00E944F038EE393E00E948F
:100DF00093038B899C898017910771F70E944B039D
:100E00000E944B030E940D016B017C0188EE282E8D
:100E100083E0382E412C512C0E940D016C197D0964
:100E20008E099F09683E734081059105A8F391E002
:100E3000291A310841085108A8EECA0EA3E0DA1EAB
:100E4000E11CF11C211431044104510429F780E014
:100E500090E0892B09F4E7CD0E949C01882309F4D6
:100E6000E2CD0E940000DFCD1092C8031092C703AC
:100E7000E7CD22E0521202C04A8264CE43E054120F
:100E800003C088E08A835ECE9AE09A835BCE2FEF20
:100E90003FEF4FE75FE7C701B6010E944F0A81119C
:100EA0000DC02FEF3FEF4FE75FE7C701B6010E948C
:100EB000850818161CF486E393E092CE2FEF3FEFDF
:100EC0004FE75FE4C701B6010E94DD0918161CF464
:100ED0008AE393E085CE2FEF3FEF4FE75FECC7014A
:100EE000B6010E94850887FDF3CF2AE037ED43EA7B
:100EF0005BE3C701B6010E9419081B012C010E9487
:100F0000FC086B017C010E942B099B01AC01C20112
:100F1000B1010E9418081B012C014AE0C701B6016B
:100F20000E944F036EE282ED93E00E94D20120E026
:100F300030E040E251E4C201B1010E94E2091B012C
:100F40002C010E94FC086B01F12CE12C4AE0C70146
:100F5000B6010E944F03C701B6010E942B099B01F5
:100F6000AC01C201B1010E94180820E030E040E26B
:100F700051E40E94E2090E94FC0890E080E04AE00F
:100F80000E944F032FCEE2EDF3E01382128288EE2F
:100F900093E0A0E0B0E084839583A683B7838AE0E2
:100FA00093E09183808385EC90E09587848784EC3F
:100FB00090E09787868780EC90E0918B808B81EC26
:100FC00090E0938B828B82EC90E0958B848B86EC07
:100FD00090E0978B868B118E128E138E148E08954F
:100FE000A1E21A2EAA1BBB1BFD010DC0AA1FBB1F2D
:100FF000EE1FFF1FA217B307E407F50720F0A21B9F
:10100000B30BE40BF50B661F771F881F991F1A940B
:1010100069F760957095809590959B01AC01BD0135
:10102000CF010895EE0FFF1F0590F491E02D099474
:101030005058BB27AA270E9430080C94A3090E948D
:10104000950938F00E949C0920F039F49F3F19F46B
:1010500026F40C9492090EF4E095E7FB0C948C09AD
:10106000E92F0E94B40958F3BA176207730784077F
:10107000950720F079F4A6F50C94D6090EF4E095C6
:101080000B2EBA2FA02D0B01B90190010C01CA0142
:10109000A0011124FF27591B99F0593F50F4503EED
:1010A00068F11A16F040A22F232F342F4427585FDF
:1010B000F3CF469537952795A795F0405395C9F7F7
:1010C0007EF41F16BA0B620B730B840BBAF09150AF
:1010D000A1F0FF0FBB1F661F771F881FC2F70EC04E
:1010E000BA0F621F731F841F48F487957795679521
:1010F000B795F7959E3F08F0B0CF9395880F08F00D
:101100009927EE0F9795879508950E94680908F42E
:1011100081E008950E949E080C94A3090E949C09F6
:1011200058F00E94950940F029F45F3F29F00C9493
:101130008C0951110C94D7090C9492090E94B4099E
:1011400068F39923B1F3552391F3951B550BBB27F6
:10115000AA2762177307840738F09F5F5F4F220F3B
:10116000331F441FAA1FA9F335D00E2E3AF0E0E832
:1011700032D091505040E695001CCAF72BD0FE2F7C
:1011800029D0660F771F881FBB1F26173707480710
:10119000AB07B0E809F0BB0B802DBF01FF279358C8
:1011A0005F4F3AF09E3F510578F00C948C090C94F7
:1011B000D7095F3FE4F3983ED4F38695779567951A
:1011C000B795F7959F5FC9F7880F911D96958795FD
:1011D00097F90895E1E0660F771F881FBB1F62171C
:1011E00073078407BA0720F0621B730B840BBA0BDA
:1011F000EE1F88F7E09508950E94BC0988F09F577C
:1012000098F0B92F9927B751B0F0E1F0660F771F2A
:10121000881F991F1AF0BA95C9F714C0B13091F020
:101220000E94D609B1E008950C94D609672F782F53
:101230008827B85F39F0B93FCCF3869577956795E5
:10124000B395D9F73EF490958095709561957F4F51
:101250008F4F9F4F0895E89409C097FB3EF49095F7
:101260008095709561957F4F8F4F9F4F9923A9F07F
:10127000F92F96E9BB279395F6958795779567950E
:10128000B795F111F8CFFAF4BB0F11F460FF1BC052
:101290006F5F7F4F8F4F9F4F16C0882311F096E9E5
:1012A00011C0772321F09EE8872F762F05C0662393
:1012B00071F096E8862F70E060E02AF09A95660F4C
:1012C000771F881FDAF7880F9695879597F9089505
:1012D000990F0008550FAA0BE0E8FEEF1616170647
:1012E000E807F907C0F012161306E407F50798F0AF
:1012F000621B730B840B950B39F40A2661F0232BC8
:10130000242B252B21F408950A2609F4A140A69543
:101310008FEF811D811D089597F99F6780E870E028
:1013200060E008959FEF80EC089500240A9416165B
:10133000170618060906089500240A9412161306C3
:10134000140605060895092E0394000C11F4882351
:1013500052F0BB0F40F4BF2B11F460FF04C06F5F6D
:101360007F4F8F4F9F4F089557FD9058440F551F43
:1013700059F05F3F71F04795880F97FB991F61F017
:101380009F3F79F087950895121613061406551F8E
:10139000F2CF4695F1DF08C0161617061806991FFA
:1013A000F1CF86957105610508940895E894BB27EF
:1013B00066277727CB0197F908950E94680908F4FA
:1013C0008FEF08950E94F5090C94A3090E949509D6
:1013D00038F00E949C0920F0952311F00C948C09A0
:1013E0000C94920911240C94D7090E94B40970F34B
:1013F000959FC1F3950F50E0551F629FF001729FBA
:10140000BB27F00DB11D639FAA27F00DB11DAA1FC8
:10141000649F6627B00DA11D661F829F2227B00D15
:10142000A11D621F739FB00DA11D621F839FA00DA0
:10143000611D221F749F3327A00D611D231F849FF0
:10144000600D211D822F762F6A2F11249F57504047
:101450009AF0F1F088234AF0EE0FFF1FBB1F661FC2
:10146000771F881F91505040A9F79E3F510580F08B
:101470000C948C090C94D7095F3FE4F3983ED4F3A5
:10148000869577956795B795F795E7959F5FC1F72F
:10149000FE2B880F911D9695879597F908950E94C8
:1014A0006809880B990B08950F931F93CF93DF93CF
:1014B0008230910510F482E090E0E0917104F091A7
:1014C000720430E020E0B0E0A0E0309799F42115FC
:1014D000310509F44AC0281B390B24303105D8F5F1
:1014E0008A819B816115710589F1FB019383828358
:1014F000FE0111C0408151810281138148175907B3
:10150000E0F04817590799F4109761F012960C9380
:10151000129713961C933296CF01DF91CF911F91B2
:101520000F9108950093710410937204F4CF211564
:10153000310551F04217530738F0A901DB019A0138
:10154000BD01DF01F801C1CFEF01F9CF9093720423
:1015500080937104CDCFFE01E20FF31F819391932D
:101560002250310939832883D7CF20916F043091DD
:101570007004232B41F42091020130910301309338
:10158000700420936F042091000130910101211516
:10159000310541F42DB73EB740910401509105014A
:1015A000241B350BE0916F04F0917004E217F307F0
:1015B000A0F42E1B3F0B2817390778F0AC014E5FC3
:1015C0005F4F2417350748F04E0F5F1F509370048C
:1015D00040936F04819391939FCFF0E0E0E09CCF24
:1015E000CF93DF930097E9F0FC01329713821282C8
:1015F000A0917104B0917204ED0130E020E01097E9
:10160000A1F420813181820F931F20916F043091CA
:1016100070042817390709F061C0F0937004E09353
:101620006F04DF91CF910895EA01CE17DF07E8F547
:101630004A815B819E0141155105B1F7E901FB83A8
:10164000EA8349915991C40FD51FEC17FD0761F446
:10165000808191810296840F951FE9019983888387
:10166000828193819B838A83F0E0E0E012968D91E2
:101670009C9113970097B9F52D913C911197CD014D
:101680000296820F931F20916F04309170042817E7
:10169000390739F6309751F510927204109271049F
:1016A000B0937004A0936F04BCCFD383C2834081F6
:1016B0005181840F951FC817D90761F44E5F5F4FA2
:1016C00088819981480F591F518340838A819B816A
:1016D000938382832115310509F0B0CFF093720412
:1016E000E09371049ECFFD01DC01C0CF1382128212
:0616F000D7CFF894FFCFF4
:1016F600000073048000000099C5ABCE320BCFD832
:10170600561D6416FDD307F49E31AC3A35FFC82C3E
:1017160051E963E2FA2797AD0E683C63A5A65875B2
:10172600C1B0F3BB6A7E9059099C3B97A2525F8178
:10173600C644F44F6D8A2E5BB79E85951C50E18397
:1017460078464A4DD38829AFB06A82611BA4E677F2
:101756007FB24DB9D47CB9F6203312388BFD762E84
:10176600EFEBDDE04425BE0227C715CC8C0971DA04
:10177600E81FDA1443D1C5F35C366E3DF7F80A2B41
:1017860093EEA1E53820C2075BC269C9F00C0DDFF4
:10179600941AA6113FD4525ECB9BF99060559D8654
:1017A60004433648AF8D55AACC6FFE6467A19A7282
:1017B60003B731BCA879EBA8726D4066D9A3247033
:1017C600BDB58FBE167BEC5C75994792DE572384B8
:1017D600BA41884A118F7C05E5C0D7CB4E0EB3DDE2
:1017E6002A18181381D67BF1E234D03F49FAB4297E
:1017F6002DEC1FE7862213A28A67B86C21A9DC7A32
:1018060045BF77B4EE7114568D93BF98265DDB8E77
:10181600424B7040E985840F1DCA2FC1B6044BD7D1
:10182600D212E01979DC83FB1A3E2835B1F04C233D
:10183600D5E6E7ED7E283DF9A43C96370FF2F22176
:101846006BE459EFC02A3A0DA3C891C30806F5D533
:101856006C105E1BC7DEAA543391019A985F658CA3
:10186600FC49CE425787ADA03465066E9FAB6278C1
:10187600FBBDC9B65073D6514F947D9FE45A198962
:10188600804CB2472B82D1A548607A6BE3AE1E7DB1
:1018960087B8B5B32C7641FCD839EA3273F78E2473
:1018A60017E125EABC2F4608DFCDEDC6740389D0C3
:1018B6001015221EBBDBF80A61CF53C4CA0137D20A
:1018C600AE179C1C05D9FFFE663B5430CDF530267D
:1018D600A9E39BE8022D6FA7F662C4695DACA07F01
:1018E60039BA0BB192746853F196C39D5A58A78BB7
:1018F6003E4E0C45958000000000D20132015F018A
:101906001F0290016E0182010D0A0048656C6C6F22
:1019160020576F726C642100566F6C746167653A6C
:101926000A006E616E00696E66006F7666000900D9
:1019360043686970204346473A0A00576861742035
:1019460077652772652077726974696E6720746F90
:1019560020746865204C544320636869703A0A0015
:10196600526567697374657220446174612066729A
:101976006F6D204C544320636869703A0A004465D1
:10198600636F64656420446174612066726F6D20C4
:061996004D55583A0A000D
:00000001FF
